:08000300E4F5801201D380F83E
:0801AB007580011201D380F8F8
:0801B3007580031201D380F8EE
:0801BB007580071201D380F8E2
:0801C30075800F1201D380F8D2
:1001370012016C7C007D03E4FF1200F37C017DABB0
:100147007F011200F37C017DB37F021200F37C0173
:100157007DBB7F031200F37C017DC37F041200F394
:0501670012018480FE7E
:0801CB0001020408102040802D
:03000B0002000EE2
:10000E00C0E0C0F0C083C082C0D075D000C000C0B8
:10001E0005C006C007C28DE521B40506C2A97F0042
:10002E00807BE52125E02468F8A681E58124F7C3CD
:10003E009524FE30001C7F00EF25E02467F8E66073
:10004E000B16E67007EF9001CB9342220FBF05E827
:10005E008002D2007F00EFC39E501574252FF8E664
:10006E00FDE52175F008A4243F2FF8A6050F80E6C4
:10007E00E52104FFEFC39405500CEF9001CB93558F
:10008E002270030F80EEBF05147F00EFD395215031
:10009E000CEF9001CB93552270030F80EE8F21EF62
:1000AE0025E02468F8E624F7C39524FE7F00EFC30D
:1000BE009E5015E52175F008A4243F2FF8E6FD7437
:1000CE00252FF8A6050F80E6E52125E02468F8E641
:1000DE00F581D007D006D005D000D0D0D082D08305
:0500EE00D0F0D0E0326B
:10016C00C2AFD2A9438901E4F58CF58AF522752436
:08017C00251524D200F5232211
:1000F3008F088C098D0A1201DBE50875F008A4242A
:100103003FF8A60AE509FFE50875F008A42440F8BE
:10011300A607E524240BFFE50825E02468F8A607D5
:10012300E5089001CB934222E50825E02467F8E433
:04013300F60201923D
:0E018400752105853F25854026D2AFD28C22FD
:0701D300D2A9750802C2A9C0
:0101DA002202
:0501DB00C2AF05232264
:0D019200E523C394014005D52302D2AF221E
:0300000002019F5B
:0C019F00787FE4F6D8FD7581700201370E
:00000001FF
